{
  "address": "0x6d112f93311c1Df3eCdb4A21693C8731A694F8D6",
  "abi": [
    {
      "inputs": [],
      "stateMutability": "nonpayable",
      "type": "constructor"
    },
    {
      "inputs": [],
      "name": "NotListed",
      "type": "error"
    },
    {
      "inputs": [],
      "name": "PayListingFees",
      "type": "error"
    },
    {
      "inputs": [],
      "name": "PriceMustNotZero",
      "type": "error"
    },
    {
      "inputs": [],
      "name": "PriceNotMet",
      "type": "error"
    },
    {
      "anonymous": false,
      "inputs": [],
      "name": "ItemBought",
      "type": "event"
    },
    {
      "anonymous": false,
      "inputs": [],
      "name": "ItemCanceled",
      "type": "event"
    },
    {
      "anonymous": false,
      "inputs": [],
      "name": "ItemListed",
      "type": "event"
    },
    {
      "anonymous": false,
      "inputs": [
        {
          "indexed": false,
          "internalType": "address",
          "name": "",
          "type": "address"
        },
        {
          "indexed": false,
          "internalType": "uint256",
          "name": "",
          "type": "uint256"
        }
      ],
      "name": "Received",
      "type": "event"
    },
    {
      "inputs": [],
      "name": "_itemIds",
      "outputs": [
        {
          "internalType": "uint256",
          "name": "_value",
          "type": "uint256"
        }
      ],
      "stateMutability": "view",
      "type": "function"
    },
    {
      "inputs": [],
      "name": "_itemSold",
      "outputs": [
        {
          "internalType": "uint256",
          "name": "_value",
          "type": "uint256"
        }
      ],
      "stateMutability": "view",
      "type": "function"
    },
    {
      "inputs": [
        {
          "internalType": "uint256",
          "name": "itemId",
          "type": "uint256"
        },
        {
          "internalType": "address",
          "name": "nftContract",
          "type": "address"
        }
      ],
      "name": "buyNFT",
      "outputs": [],
      "stateMutability": "payable",
      "type": "function"
    },
    {
      "inputs": [],
      "name": "getContractOwner",
      "outputs": [
        {
          "internalType": "address",
          "name": "",
          "type": "address"
        }
      ],
      "stateMutability": "view",
      "type": "function"
    },
    {
      "inputs": [],
      "name": "getEarnings",
      "outputs": [
        {
          "internalType": "uint256",
          "name": "",
          "type": "uint256"
        }
      ],
      "stateMutability": "view",
      "type": "function"
    },
    {
      "inputs": [],
      "name": "getItemSold",
      "outputs": [
        {
          "internalType": "uint256",
          "name": "",
          "type": "uint256"
        }
      ],
      "stateMutability": "view",
      "type": "function"
    },
    {
      "inputs": [
        {
          "internalType": "uint256",
          "name": "itemId",
          "type": "uint256"
        }
      ],
      "name": "getListing",
      "outputs": [
        {
          "components": [
            {
              "internalType": "uint256",
              "name": "itemId",
              "type": "uint256"
            },
            {
              "internalType": "address",
              "name": "nftContract",
              "type": "address"
            },
            {
              "internalType": "uint256",
              "name": "tokenId",
              "type": "uint256"
            },
            {
              "internalType": "string",
              "name": "category",
              "type": "string"
            },
            {
              "internalType": "address payable",
              "name": "seller",
              "type": "address"
            },
            {
              "internalType": "address payable",
              "name": "owner",
              "type": "address"
            },
            {
              "internalType": "uint256",
              "name": "price",
              "type": "uint256"
            },
            {
              "internalType": "bool",
              "name": "sold",
              "type": "bool"
            }
          ],
          "internalType": "struct MyPlace.Item",
          "name": "",
          "type": "tuple"
        }
      ],
      "stateMutability": "view",
      "type": "function"
    },
    {
      "inputs": [],
      "name": "getListingPrice",
      "outputs": [
        {
          "internalType": "uint256",
          "name": "",
          "type": "uint256"
        }
      ],
      "stateMutability": "view",
      "type": "function"
    },
    {
      "inputs": [],
      "name": "getitemId",
      "outputs": [
        {
          "internalType": "uint256",
          "name": "",
          "type": "uint256"
        }
      ],
      "stateMutability": "view",
      "type": "function"
    },
    {
      "inputs": [
        {
          "internalType": "address",
          "name": "_nftContract",
          "type": "address"
        },
        {
          "internalType": "uint256",
          "name": "_tokenId",
          "type": "uint256"
        },
        {
          "internalType": "uint256",
          "name": "_price",
          "type": "uint256"
        },
        {
          "internalType": "string",
          "name": "_itemCategory",
          "type": "string"
        }
      ],
      "name": "listNFT",
      "outputs": [],
      "stateMutability": "payable",
      "type": "function"
    },
    {
      "inputs": [
        {
          "internalType": "uint256",
          "name": "",
          "type": "uint256"
        }
      ],
      "name": "s_allListings",
      "outputs": [
        {
          "internalType": "uint256",
          "name": "itemId",
          "type": "uint256"
        },
        {
          "internalType": "address",
          "name": "nftContract",
          "type": "address"
        },
        {
          "internalType": "uint256",
          "name": "tokenId",
          "type": "uint256"
        },
        {
          "internalType": "string",
          "name": "category",
          "type": "string"
        },
        {
          "internalType": "address payable",
          "name": "seller",
          "type": "address"
        },
        {
          "internalType": "address payable",
          "name": "owner",
          "type": "address"
        },
        {
          "internalType": "uint256",
          "name": "price",
          "type": "uint256"
        },
        {
          "internalType": "bool",
          "name": "sold",
          "type": "bool"
        }
      ],
      "stateMutability": "view",
      "type": "function"
    },
    {
      "inputs": [],
      "name": "withdrawCommisson",
      "outputs": [],
      "stateMutability": "payable",
      "type": "function"
    },
    {
      "stateMutability": "payable",
      "type": "receive"
    }
  ],
  "transactionHash": "0xaef8b371b50031842baea64902311f45f85b37ddf4ae990c57da6555acdf3711",
  "args": [],
  "numDeployments": 1,
  "solcInputHash": "0ade245996829ab839c62922622fff55",
  "bytecode": "0x60806040526658d15e1762800060045534801561001b57600080fd5b50600160008190555033600360006101000a81548173ffffffffffffffffffffffffffffffffffffffff021916908373ffffffffffffffffffffffffffffffffffffffff160217905550611b20806100746000396000f3fe6080604052600436106100ab5760003560e01c806339547d801161006457806339547d801461021d5780634326e1cf14610248578063442890d514610252578063906662321461027d578063a0441780146102a8578063d8db47a7146102c4576100eb565b8063017662fe146100f05780630c8a00ed14610134578063107a274a1461015f57806312e855851461019c5780632aeafc5f146101c757806334a7f193146101f2576100eb565b366100eb577f88a5966d370b9919b20f3e2c13ff65706f196a4e32cc2c12bf57088f8852587433346040516100e1929190611046565b60405180910390a1005b600080fd5b3480156100fc57600080fd5b50610117600480360381019061011291906110af565b6102e0565b60405161012b9897969594939291906111a8565b60405180910390f35b34801561014057600080fd5b5061014961041d565b604051610156919061122d565b60405180910390f35b34801561016b57600080fd5b50610186600480360381019061018191906110af565b61042e565b604051610193919061137e565b60405180910390f35b3480156101a857600080fd5b506101b1610629565b6040516101be919061122d565b60405180910390f35b3480156101d357600080fd5b506101dc610633565b6040516101e9919061122d565b60405180910390f35b3480156101fe57600080fd5b5061020761063f565b604051610214919061122d565b60405180910390f35b34801561022957600080fd5b5061023261064b565b60405161023f919061122d565b60405180910390f35b61025061065c565b005b34801561025e57600080fd5b506102676107bd565b60405161027491906113a0565b60405180910390f35b34801561028957600080fd5b506102926107e7565b60405161029f919061122d565b60405180910390f35b6102c260048036038101906102bd919061151c565b6107ef565b005b6102de60048036038101906102d9919061159f565b610b9d565b005b60056020528060005260406000206000915090508060000154908060010160009054906101000a900473ffffffffffffffffffffffffffffffffffffffff16908060020154908060030180546103359061160e565b80601f01602080910402602001604051908101604052809291908181526020018280546103619061160e565b80156103ae5780601f10610383576101008083540402835291602001916103ae565b820191906000526020600020905b81548152906001019060200180831161039157829003601f168201915b5050505050908060040160009054906101000a900473ffffffffffffffffffffffffffffffffffffffff16908060050160009054906101000a900473ffffffffffffffffffffffffffffffffffffffff16908060060154908060070160009054906101000a900460ff16905088565b60006104296001610ee6565b905090565b610436610f63565b6005600083815260200190815260200160002060405180610100016040529081600082015481526020016001820160009054906101000a900473ffffffffffffffffffffffffffffffffffffffff1673ffffffffffffffffffffffffffffffffffffffff1673ffffffffffffffffffffffffffffffffffffffff168152602001600282015481526020016003820180546104cf9061160e565b80601f01602080910402602001604051908101604052809291908181526020018280546104fb9061160e565b80156105485780601f1061051d57610100808354040283529160200191610548565b820191906000526020600020905b81548152906001019060200180831161052b57829003601f168201915b505050505081526020016004820160009054906101000a900473ffffffffffffffffffffffffffffffffffffffff1673ffffffffffffffffffffffffffffffffffffffff1673ffffffffffffffffffffffffffffffffffffffff1681526020016005820160009054906101000a900473ffffffffffffffffffffffffffffffffffffffff1673ffffffffffffffffffffffffffffffffffffffff1673ffffffffffffffffffffffffffffffffffffffff168152602001600682015481526020016007820160009054906101000a900460ff1615151515815250509050919050565b6000600454905090565b60028060000154905081565b60018060000154905081565b60006106576002610ee6565b905090565b3373ffffffffffffffffffffffffffffffffffffffff16600360009054906101000a900473ffffffffffffffffffffffffffffffffffffffff1673ffffffffffffffffffffffffffffffffffffffff16146106ec576040517f08c379a00000000000000000000000000000000000000000000000000000000081526004016106e39061168b565b60405180910390fd5b6000600360009054906101000a900473ffffffffffffffffffffffffffffffffffffffff1673ffffffffffffffffffffffffffffffffffffffff1647604051610734906116dc565b60006040518083038185875af1925050503d8060008114610771576040519150601f19603f3d011682016040523d82523d6000602084013e610776565b606091505b50509050806107ba576040517f08c379a00000000000000000000000000000000000000000000000000000000081526004016107b19061173d565b60405180910390fd5b50565b6000600360009054906101000a900473ffffffffffffffffffffffffffffffffffffffff16905090565b600047905090565b6107f7610ef4565b6000821015610832576040517f710871ac00000000000000000000000000000000000000000000000000000000815260040160405180910390fd5b600454341461086d576040517fbad5061900000000000000000000000000000000000000000000000000000000815260040160405180910390fd5b6108776001610f43565b60006108836001610ee6565b90506040518061010001604052808281526020018673ffffffffffffffffffffffffffffffffffffffff1681526020018581526020018381526020013373ffffffffffffffffffffffffffffffffffffffff168152602001600073ffffffffffffffffffffffffffffffffffffffff16815260200184815260200160001515815250600560008381526020019081526020016000206000820151816000015560208201518160010160006101000a81548173ffffffffffffffffffffffffffffffffffffffff021916908373ffffffffffffffffffffffffffffffffffffffff1602179055506040820151816002015560608201518160030190816109889190611909565b5060808201518160040160006101000a81548173ffffffffffffffffffffffffffffffffffffffff021916908373ffffffffffffffffffffffffffffffffffffffff16021790555060a08201518160050160006101000a81548173ffffffffffffffffffffffffffffffffffffffff021916908373ffffffffffffffffffffffffffffffffffffffff16021790555060c0820151816006015560e08201518160070160006101000a81548160ff0219169083151502179055509050508473ffffffffffffffffffffffffffffffffffffffff166323b872dd3330876040518463ffffffff1660e01b8152600401610a81939291906119db565b600060405180830381600087803b158015610a9b57600080fd5b505af1158015610aaf573d6000803e3d6000fd5b5050505060003073ffffffffffffffffffffffffffffffffffffffff16600454604051610adb906116dc565b60006040518083038185875af1925050503d8060008114610b18576040519150601f19603f3d011682016040523d82523d6000602084013e610b1d565b606091505b5050905080610b61576040517f08c379a0000000000000000000000000000000000000000000000000000000008152600401610b5890611a5e565b60405180910390fd5b7f273574bb91eab2058679c95c6f758720d116b80dfdac4756229c42ec83c39a3760405160405180910390a15050610b97610f59565b50505050565b816000600560008381526020019081526020016000206006015411610bee576040517f665c1c5700000000000000000000000000000000000000000000000000000000815260040160405180910390fd5b610bf6610ef4565b600060056000858152602001908152602001600020600601549050803414610c4a576040517fa2c2d5c600000000000000000000000000000000000000000000000000000000815260040160405180910390fd5b336005600086815260200190815260200160002060050160006101000a81548173ffffffffffffffffffffffffffffffffffffffff021916908373ffffffffffffffffffffffffffffffffffffffff16021790555060016005600086815260200190815260200160002060070160006101000a81548160ff021916908315150217905550610cd86002610f43565b8273ffffffffffffffffffffffffffffffffffffffff166323b872dd303360056000898152602001908152602001600020600201546040518463ffffffff1660e01b8152600401610d2b939291906119db565b600060405180830381600087803b158015610d4557600080fd5b505af1158015610d59573d6000803e3d6000fd5b5050505060006005600086815260200190815260200160002060040160009054906101000a900473ffffffffffffffffffffffffffffffffffffffff1673ffffffffffffffffffffffffffffffffffffffff166005600087815260200190815260200160002060060154604051610dcf906116dc565b60006040518083038185875af1925050503d8060008114610e0c576040519150601f19603f3d011682016040523d82523d6000602084013e610e11565b606091505b5050905080610e55576040517f08c379a0000000000000000000000000000000000000000000000000000000008152600401610e4c9061173d565b60405180910390fd5b60006005600087815260200190815260200160002060040160006101000a81548173ffffffffffffffffffffffffffffffffffffffff021916908373ffffffffffffffffffffffffffffffffffffffff1602179055507fd6f01d7bc0dc1a98636755e9e640f98a8fe5cb7f98c2550624e4e7a44ee0615260405160405180910390a15050610ee1610f59565b505050565b600081600001549050919050565b600260005403610f39576040517f08c379a0000000000000000000000000000000000000000000000000000000008152600401610f3090611aca565b60405180910390fd5b6002600081905550565b6001816000016000828254019250508190555050565b6001600081905550565b60405180610100016040528060008152602001600073ffffffffffffffffffffffffffffffffffffffff1681526020016000815260200160608152602001600073ffffffffffffffffffffffffffffffffffffffff168152602001600073ffffffffffffffffffffffffffffffffffffffff168152602001600081526020016000151581525090565b600073ffffffffffffffffffffffffffffffffffffffff82169050919050565b600061101782610fec565b9050919050565b6110278161100c565b82525050565b6000819050919050565b6110408161102d565b82525050565b600060408201905061105b600083018561101e565b6110686020830184611037565b9392505050565b6000604051905090565b600080fd5b600080fd5b61108c8161102d565b811461109757600080fd5b50565b6000813590506110a981611083565b92915050565b6000602082840312156110c5576110c4611079565b5b60006110d38482850161109a565b91505092915050565b600081519050919050565b600082825260208201905092915050565b60005b838110156111165780820151818401526020810190506110fb565b60008484015250505050565b6000601f19601f8301169050919050565b600061113e826110dc565b61114881856110e7565b93506111588185602086016110f8565b61116181611122565b840191505092915050565b600061117782610fec565b9050919050565b6111878161116c565b82525050565b60008115159050919050565b6111a28161118d565b82525050565b6000610100820190506111be600083018b611037565b6111cb602083018a61101e565b6111d86040830189611037565b81810360608301526111ea8188611133565b90506111f9608083018761117e565b61120660a083018661117e565b61121360c0830185611037565b61122060e0830184611199565b9998505050505050505050565b60006020820190506112426000830184611037565b92915050565b6112518161102d565b82525050565b6112608161100c565b82525050565b600082825260208201905092915050565b6000611282826110dc565b61128c8185611266565b935061129c8185602086016110f8565b6112a581611122565b840191505092915050565b6112b98161116c565b82525050565b6112c88161118d565b82525050565b6000610100830160008301516112e76000860182611248565b5060208301516112fa6020860182611257565b50604083015161130d6040860182611248565b50606083015184820360608601526113258282611277565b915050608083015161133a60808601826112b0565b5060a083015161134d60a08601826112b0565b5060c083015161136060c0860182611248565b5060e083015161137360e08601826112bf565b508091505092915050565b6000602082019050818103600083015261139881846112ce565b905092915050565b60006020820190506113b5600083018461101e565b92915050565b6113c48161100c565b81146113cf57600080fd5b50565b6000813590506113e1816113bb565b92915050565b600080fd5b600080fd5b7f4e487b7100000000000000000000000000000000000000000000000000000000600052604160045260246000fd5b61142982611122565b810181811067ffffffffffffffff82111715611448576114476113f1565b5b80604052505050565b600061145b61106f565b90506114678282611420565b919050565b600067ffffffffffffffff821115611487576114866113f1565b5b61149082611122565b9050602081019050919050565b82818337600083830152505050565b60006114bf6114ba8461146c565b611451565b9050828152602081018484840111156114db576114da6113ec565b5b6114e684828561149d565b509392505050565b600082601f830112611503576115026113e7565b5b81356115138482602086016114ac565b91505092915050565b6000806000806080858703121561153657611535611079565b5b6000611544878288016113d2565b94505060206115558782880161109a565b93505060406115668782880161109a565b925050606085013567ffffffffffffffff8111156115875761158661107e565b5b611593878288016114ee565b91505092959194509250565b600080604083850312156115b6576115b5611079565b5b60006115c48582860161109a565b92505060206115d5858286016113d2565b9150509250929050565b7f4e487b7100000000000000000000000000000000000000000000000000000000600052602260045260246000fd5b6000600282049050600182168061162657607f821691505b602082108103611639576116386115df565b5b50919050565b7f4e6f74206f776e65720000000000000000000000000000000000000000000000600082015250565b60006116756009836110e7565b91506116808261163f565b602082019050919050565b600060208201905081810360008301526116a481611668565b9050919050565b600081905092915050565b50565b60006116c66000836116ab565b91506116d1826116b6565b600082019050919050565b60006116e7826116b9565b9150819050919050565b7f43616c6c206661696c6564000000000000000000000000000000000000000000600082015250565b6000611727600b836110e7565b9150611732826116f1565b602082019050919050565b600060208201905081810360008301526117568161171a565b9050919050565b60008190508160005260206000209050919050565b60006020601f8301049050919050565b600082821b905092915050565b6000600883026117bf7fffffffffffffffffffffffffffffffffffffffffffffffffffffffffffffffff82611782565b6117c98683611782565b95508019841693508086168417925050509392505050565b6000819050919050565b60006118066118016117fc8461102d565b6117e1565b61102d565b9050919050565b6000819050919050565b611820836117eb565b61183461182c8261180d565b84845461178f565b825550505050565b600090565b61184961183c565b611854818484611817565b505050565b5b818110156118785761186d600082611841565b60018101905061185a565b5050565b601f8211156118bd5761188e8161175d565b61189784611772565b810160208510156118a6578190505b6118ba6118b285611772565b830182611859565b50505b505050565b600082821c905092915050565b60006118e0600019846008026118c2565b1980831691505092915050565b60006118f983836118cf565b9150826002028217905092915050565b611912826110dc565b67ffffffffffffffff81111561192b5761192a6113f1565b5b611935825461160e565b61194082828561187c565b600060209050601f8311600181146119735760008415611961578287015190505b61196b85826118ed565b8655506119d3565b601f1984166119818661175d565b60005b828110156119a957848901518255600182019150602085019450602081019050611984565b868310156119c657848901516119c2601f8916826118cf565b8355505b6001600288020188555050505b505050505050565b60006060820190506119f0600083018661101e565b6119fd602083018561101e565b611a0a6040830184611037565b949350505050565b7f46656573206e6f74207061696400000000000000000000000000000000000000600082015250565b6000611a48600d836110e7565b9150611a5382611a12565b602082019050919050565b60006020820190508181036000830152611a7781611a3b565b9050919050565b7f5265656e7472616e637947756172643a207265656e7472616e742063616c6c00600082015250565b6000611ab4601f836110e7565b9150611abf82611a7e565b602082019050919050565b60006020820190508181036000830152611ae381611aa7565b905091905056fea2646970667358221220e3b731cc6cea7caa8a8c319b16589ef84fc3c2018bd5dae482b1ee38543b2e1b64736f6c63430008110033",
  "devdoc": {
    "kind": "dev",
    "methods": {
      "buyNFT(uint256,address)": {
        "params": {
          "itemId": "- The token id of the Item to buy"
        }
      },
      "listNFT(address,uint256,uint256,string)": {
        "params": {
          "_itemCategory": "- Type of NFT. For ex. Music, Art, Illustration, etc.",
          "_nftContract": "- The contract address of the nft",
          "_price": "- Price on which to sell the NFT"
        }
      }
    },
    "version": 1
  },
  "userdoc": {
    "kind": "user",
    "methods": {
      "buyNFT(uint256,address)": {
        "notice": "Buy the Item"
      },
      "listNFT(address,uint256,uint256,string)": {
        "notice": "List the item on the marketplace by paying listing fees"
      }
    },
    "version": 1
  },
  "storageLayout": {
    "storage": [
      {
        "astId": 10,
        "contract": "contracts/MyPlace.sol:MyPlace",
        "label": "_status",
        "offset": 0,
        "slot": "0",
        "type": "t_uint256"
      },
      {
        "astId": 2812,
        "contract": "contracts/MyPlace.sol:MyPlace",
        "label": "_itemIds",
        "offset": 0,
        "slot": "1",
        "type": "t_struct(Counter)1642_storage"
      },
      {
        "astId": 2815,
        "contract": "contracts/MyPlace.sol:MyPlace",
        "label": "_itemSold",
        "offset": 0,
        "slot": "2",
        "type": "t_struct(Counter)1642_storage"
      },
      {
        "astId": 2834,
        "contract": "contracts/MyPlace.sol:MyPlace",
        "label": "owner",
        "offset": 0,
        "slot": "3",
        "type": "t_address_payable"
      },
      {
        "astId": 2837,
        "contract": "contracts/MyPlace.sol:MyPlace",
        "label": "listingPrice",
        "offset": 0,
        "slot": "4",
        "type": "t_uint256"
      },
      {
        "astId": 2842,
        "contract": "contracts/MyPlace.sol:MyPlace",
        "label": "s_allListings",
        "offset": 0,
        "slot": "5",
        "type": "t_mapping(t_uint256,t_struct(Item)2832_storage)"
      }
    ],
    "types": {
      "t_address": {
        "encoding": "inplace",
        "label": "address",
        "numberOfBytes": "20"
      },
      "t_address_payable": {
        "encoding": "inplace",
        "label": "address payable",
        "numberOfBytes": "20"
      },
      "t_bool": {
        "encoding": "inplace",
        "label": "bool",
        "numberOfBytes": "1"
      },
      "t_mapping(t_uint256,t_struct(Item)2832_storage)": {
        "encoding": "mapping",
        "key": "t_uint256",
        "label": "mapping(uint256 => struct MyPlace.Item)",
        "numberOfBytes": "32",
        "value": "t_struct(Item)2832_storage"
      },
      "t_string_storage": {
        "encoding": "bytes",
        "label": "string",
        "numberOfBytes": "32"
      },
      "t_struct(Counter)1642_storage": {
        "encoding": "inplace",
        "label": "struct Counters.Counter",
        "members": [
          {
            "astId": 1641,
            "contract": "contracts/MyPlace.sol:MyPlace",
            "label": "_value",
            "offset": 0,
            "slot": "0",
            "type": "t_uint256"
          }
        ],
        "numberOfBytes": "32"
      },
      "t_struct(Item)2832_storage": {
        "encoding": "inplace",
        "label": "struct MyPlace.Item",
        "members": [
          {
            "astId": 2817,
            "contract": "contracts/MyPlace.sol:MyPlace",
            "label": "itemId",
            "offset": 0,
            "slot": "0",
            "type": "t_uint256"
          },
          {
            "astId": 2819,
            "contract": "contracts/MyPlace.sol:MyPlace",
            "label": "nftContract",
            "offset": 0,
            "slot": "1",
            "type": "t_address"
          },
          {
            "astId": 2821,
            "contract": "contracts/MyPlace.sol:MyPlace",
            "label": "tokenId",
            "offset": 0,
            "slot": "2",
            "type": "t_uint256"
          },
          {
            "astId": 2823,
            "contract": "contracts/MyPlace.sol:MyPlace",
            "label": "category",
            "offset": 0,
            "slot": "3",
            "type": "t_string_storage"
          },
          {
            "astId": 2825,
            "contract": "contracts/MyPlace.sol:MyPlace",
            "label": "seller",
            "offset": 0,
            "slot": "4",
            "type": "t_address_payable"
          },
          {
            "astId": 2827,
            "contract": "contracts/MyPlace.sol:MyPlace",
            "label": "owner",
            "offset": 0,
            "slot": "5",
            "type": "t_address_payable"
          },
          {
            "astId": 2829,
            "contract": "contracts/MyPlace.sol:MyPlace",
            "label": "price",
            "offset": 0,
            "slot": "6",
            "type": "t_uint256"
          },
          {
            "astId": 2831,
            "contract": "contracts/MyPlace.sol:MyPlace",
            "label": "sold",
            "offset": 0,
            "slot": "7",
            "type": "t_bool"
          }
        ],
        "numberOfBytes": "256"
      },
      "t_uint256": {
        "encoding": "inplace",
        "label": "uint256",
        "numberOfBytes": "32"
      }
    }
  }
}